:020000040800F2
:1000000000000120F13200088D1200088F12000854
:1000100091120008931200089512000800000000D9
:10002000000000000000000000000000971200081F
:1000300099120008000000009B1200089D120008A1
:1000400041330008413300084133000841330008C0
:1000500041330008413300084133000841330008B0
:1000600041330008413300084133000841330008A0
:100070004133000841330008413300084133000890
:100080004133000841330008A512000800000000B9
:1000900000000000000000000000000041330008E4
:1000A0004133000841330008413300084133000860
:1000B000B5120008413300084133000841330008FD
:1000C0004133000841330008413300084133000840
:1000D00041330008413300084133000800000000AC
:1000E000413300084133000841330008000000009C
:1000F0000000000000000000000000004133000884
:10010000000000004133000841330008413300087B
:1001100000000000000000000000000000000000DF
:10012000C51200084133000841330008413300087C
:100130004133000800000000000000000000000043
:100140000000000000000000000000004133000833
:1001500041330008413300084133000841330008AF
:100160004133000841330008000000000000000097
:10017000000000000000000000000000000000007F
:1001800000000000413300080000000000000000F3
:0401900041330008EF
:1001A00001F0FF01102A2BDB10F0070F08D010F828
:1001B000013B013A8B422DD010F0070F42B3F6D12C
:1001C000F0B441EA012141EA014122F007047FF045
:1001D00000070023F0E80256083C85EA010586EA9C
:1001E000010685FA47F5A3FA87F586FA47F6A5FAD8
:1001F00087F68EB9EED1F0BC01F0FF0102F00702E4
:1002000032B110F8013B013A83EA010313B1F8D18E
:100210000020704701387047002D06BF354603386F
:10022000073815F0010F07D1013015F4807F02BFA8
:10023000013015F4C03F0130F0BC0138704700BFF9
:10024000034613F8012B002AFBD1181A0138704716
:100250004B1C012B98BF70472DE9F003911C9B08A4
:10026000B1F80480B1F802900A8831F802CC8044D9
:10027000814402448444D9F80070D8F800601568BD
:10028000DCF80040C9F80060C8F80070CCF80050F5
:100290001460D9F80470D8F804605568DCF804409C
:1002A000C9F80460C8F80470CCF8045054600831F0
:1002B000013BD5D1BDE8F00370474B1C012B98BF23
:1002C00070472DE9F003911C9B08B1F80480B1F848
:1002D00002900A8831F802CC00EB580800EB59096B
:1002E00000EB520200EB5C0CD9F80070D8F800600B
:1002F0001568DCF80040C9F80060C8F80070CCF858
:10030000005014600831013BDFD1BDE8F0037047B5
:1003100081F0004102E000BF83F0004330B54FEAB6
:1003200041044FEA430594EA050F08BF90EA020F23
:100330001FBF54EA000C55EA020C7FEA645C7FEAB6
:10034000655C00F0E2804FEA5454D4EB5555B8BFD9
:100350006D420CDD2C4480EA020281EA030382EA4A
:10036000000083EA010180EA020281EA0303362DDC
:1003700088BF30BD11F0004F4FEA01314FF4801CAF
:100380004CEA113102D0404261EB410113F0004FC1
:100390004FEA03334CEA133302D0524263EB430378
:1003A00094EA050F00F0A780A4F10104D5F1200E16
:1003B0000DDB02FA0EFC22FA05F2801841F1000171
:1003C00003FA0EF2801843FA05F359410EE0A5F145
:1003D00020050EF1200E012A03FA0EFC28BF4CF076
:1003E000020C43FA05F3C01851EBE37101F000452C
:1003F00007D54FF0000EDCF1000C7EEB00006EEB39
:100400000101B1F5801F1BD3B1F5001F0CD34908C2
:100410005FEA30004FEA3C0C04F101044FEA445219
:1004200012F5800F80F09A80BCF1004F08BF5FEAA0
:10043000500C50F1000041EB045141EA050130BD80
:100440005FEA4C0C404141EB0101013C28BFB1F592
:10045000801FE9D291F0000F04BF01460020B1FADD
:1004600081F308BF2033A3F10B03B3F120020CDAB0
:100470000C3208DD02F1140CC2F10C0201FA0CF08E
:1004800021FA02F10CE002F11402D8BFC2F1200CF3
:1004900001FA02F120FA0CFCDCBF41EA0C019040A9
:1004A000E41AA2BF01EB0451294330BD6FEA0404F2
:1004B0001F3C1CDA0C340EDC04F11404C4F12002DD
:1004C00020FA04F001FA02F340EA030021FA04F3EF
:1004D00045EA030130BDC4F10C04C4F1200220FA46
:1004E00002F001FA04F340EA0300294630BD21FA84
:1004F00004F0294630BD94F0000F83F4801306BF4A
:1005000081F480110134013D4EE77FEA645C18BF3D
:100510007FEA655C29D094EA050F08BF90EA020FD4
:1005200005D054EA000C04BF1946104630BD91EACC
:10053000030F1EBF0021002030BD5FEA545C05D1CF
:100540004000494128BF41F0004130BD14F580040E
:100550003CBF01F5801130BD01F0004545F0FE4182
:1005600041F470014FF0000030BD7FEA645C1ABFB7
:10057000194610467FEA655C1CBF0B46024650EAEE
:10058000013406BF52EA033591EA030F41F400211A
:1005900030BD00BF90F0000F04BF0021704730B5A0
:1005A0004FF4806404F132044FF000054FF0000175
:1005B00050E700BF90F0000F04BF0021704730B536
:1005C0004FF4806404F1320410F0004548BF40420B
:1005D0004FF000013EE700BF42004FEAE2014FEA60
:1005E00031014FEA02701FBF12F07F4393F07F4F3B
:1005F00081F06051704732F07F4208BF704793F03E
:100600007F4F04BF41F40021704730B54FF4607450
:1006100001F0004521F000411CE700BF50EA010253
:1006200008BF704730B54FF000050AE050EA0102FC
:1006300008BF704730B511F0004502D5404261EB6C
:1006400041014FF4806404F132045FEA915C3FF4AD
:10065000D8AE4FF003025FEADC0C18BF03325FEA4A
:10066000DC0C18BF033202EBDC02C2F1200300FAFB
:1006700003FC20FA02F001FA03FE40EA0E0021FA20
:1006800002F11444BDE600BF70B54FF0FF0C4CF40E
:10069000E06C1CEA11541DBF1CEA135594EA0C0FC0
:1006A00095EA0C0F00F0DEF82C4481EA030621EAFB
:1006B0004C5123EA4C5350EA013518BF52EA033536
:1006C00041F4801143F4801338D0A0FB02CE4FF0E8
:1006D0000005E1FB02E506F00042E0FB03E54FF018
:1006E0000006E1FB03569CF0000F18BF4EF0010E10
:1006F000A4F1FF04B6F5007F64F5407404D25FEA0C
:100700004E0E6D4146EB060642EAC62141EA5551BE
:100710004FEAC52040EA5E504FEACE2EB4F1FD0C00
:1007200088BFBCF5E06F1ED8BEF1004F08BF5FEA7E
:10073000500E50F1000041EB045170BD06F0004630
:1007400046EA010140EA020081EA0301B4EB5C04DD
:10075000C2BFD4EB0C0541EA045170BD41F48011D5
:100760004FF0000E013C00F3AB8014F1360FDEBFFA
:10077000002001F0004170BDC4F10004203C35DAD6
:100780000C341BDC04F11404C4F1200500FA05F359
:1007900020FA04F001FA05F240EA020001F00042FA
:1007A00021F0004110EBD37021FA04F642EB060170
:1007B0005EEA430E08BF20EAD37070BDC4F10C049A
:1007C000C4F1200500FA04F320FA05F001FA04F25E
:1007D00040EA020001F0004110EBD37041F100014A
:1007E0005EEA430E08BF20EAD37070BDC4F1200555
:1007F00000FA05F24EEA020E20FA04F301FA05F2BD
:1008000043EA020321FA04F001F0004121FA04F264
:1008100020EA020000EBD3705EEA430E08BF20EA34
:10082000D37070BD94F0000F0FD101F0004640006E
:1008300041EB010111F4801F08BF013CF7D041EAF0
:10084000060195F0000F18BF704703F000465200F4
:1008500043EB030313F4801F08BF013DF7D043EAC5
:100860000603704794EA0C0F0CEA135518BF95EA7B
:100870000C0F0CD050EA410618BF52EA4306D1D102
:1008800081EA030101F000414FF0000070BD50EA21
:10089000410606BF1046194652EA430619D094EAAB
:1008A0000C0F02D150EA013613D195EA0C0F05D195
:1008B00052EA03361CBF104619460AD181EA0301E9
:1008C00001F0004141F0FE4141F470014FF00000A1
:1008D00070BD41F0FE4141F4780170BD70B54FF03C
:1008E000FF0C4CF4E06C1CEA11541DBF1CEA1355BC
:1008F00094EA0C0F95EA0C0F00F0A7F8A4EB05049E
:1009000081EA030E52EA03354FEA013100F0888094
:100910004FEA03334FF0805545EA131343EA12635D
:100920004FEA022245EA111545EA10654FEA002612
:100930000EF000419D4208BF964244F1FD0404F5CB
:10094000407402D25B084FEA3202B61A65EB030527
:100950005B084FEA32024FF480104FF4002CB6EBE4
:10096000020E75EB030E22BFB61A754640EA0C0064
:100970005B084FEA3202B6EB020E75EB030E22BFA4
:10098000B61A754640EA5C005B084FEA3202B6EBE5
:10099000020E75EB030E22BFB61A754640EA9C00A4
:1009A0005B084FEA3202B6EB020E75EB030E22BF74
:1009B000B61A754640EADC0055EA060E18D04FEA32
:1009C000051545EA16754FEA06164FEAC30343EAD2
:1009D00052734FEAC2025FEA1C1CC0D111F4801F9F
:1009E0000BD141EA00014FF000004FF0004CB6E798
:1009F00011F4801F04BF01430020B4F1FD0C88BF37
:100A0000BCF5E06F3FF6AFAEB5EB030C04BFB6EB41
:100A1000020C5FEA500C50F1000041EB045170BD34
:100A20000EF0004E4EEA113114EB5C04C2BFD4EB61
:100A30000C0541EA045170BD41F480114FF0000EE5
:100A4000013C90E645EA060E8DE60CEA135594EA61
:100A50000C0F08BF95EA0C0F3FF43BAF94EA0C0F64
:100A60000AD150EA01347FF434AF95EA0C0F7FF4D9
:100A700025AF104619462CE795EA0C0F06D152EA2D
:100A800003353FF4FDAE1046194622E750EA410611
:100A900018BF52EA43067FF4C5AE50EA41047FF422
:100AA0000DAF52EA43057FF4EBAE12E74FF0FF3C87
:100AB00006E000BF4FF0010C02E000BF4FF0010C58
:100AC0004DF804CD4FEA410C7FEA6C5C4FEA430CD1
:100AD00018BF7FEA6C5C1BD001B050EA410C0CBF20
:100AE00052EA430C91EA030F02BF90EA020F002082
:100AF000704710F1000F91EA030F58BF994208BFE9
:100B000090422CBFD8176FEAE37040F001007047A5
:100B10004FEA410C7FEA6C5C02D150EA013C07D1FC
:100B20004FEA430C7FEA6C5CD6D152EA033CD3D047
:100B30005DF8040B704700BF8446104662468C4641
:100B40001946634600E000BF01B5FFF7B7FF002874
:100B500048BF10F1000F01BD4DF808EDFFF7F4FF9D
:100B60000CBF012000205DF808FB00BF4DF808ED28
:100B7000FFF7EAFF34BF012000205DF808FB00BF4B
:100B80004DF808EDFFF7E0FF94BF012000205DF86D
:100B900008FB00BF4DF808EDFFF7CEFF94BF012022
:100BA00000205DF808FB00BF4DF808EDFFF7C4FF1B
:100BB00034BF012000205DF808FB00BF4FEA410C64
:100BC0007FEA6C5C02D150EA013C0AD14FEA430C47
:100BD0007FEA6C5C02D152EA033C02D14FF0000084
:100BE00070474FF0010070474FEA410212F50012C2
:100BF00015D211D56FF47873B3EB625212D94FEA64
:100C0000C12343F0004343EA505311F0004F23FA4D
:100C100002F018BF404270474FF00000704750EAA2
:100C2000013005D111F0004008BF6FF0004070475F
:100C30004FF00000704700BF53B94AB9002908BF00
:100C400000281CBF4FF0FF314FF0FF3000F00CB810
:100C5000ADF1080C6DE904CE06F022FEDDF804E0EB
:100C6000DDE9022304B07047704700BF0348044B1E
:100C7000834202D0034B03B118477047B0060020EF
:100C8000B0060020000000000548064B1B1AD90FD3
:100C900001EBA301491002D0034B03B11847704781
:100CA000B0060020B00600200000000010B5064C81
:100CB000237843B9FFF7DAFF044B13B10448AFF3CD
:100CC00000800123237010BDB0060020000000004A
:100CD000A87B000808B5054B1BB105490548AFF3D3
:100CE0000080BDE80840FFF7CFBF00BF0000000054
:100CF000B4060020A87B000884B000220192104BAB
:100D0000196B41F080011963196B01F080010191A9
:100D100001990292196B41F002011963196B01F0FC
:100D200002010291029903921A6B42F001021A63C6
:100D30001B6B03F001030393039B04B0704700BFD8
:100D40000038024000B583B000210191094B1A6BB5
:100D500042F480021A631B6B03F480030193019B2E
:100D60000A46382001F050FD382001F05DFD03B047
:100D70005DF804FB0038024070B5ADF5425D00231C
:100D80000CE0A64A32F8132007EE902AF8EE677AB4
:100D9000A34A02EB8302C2ED007A0133B3F5006F80
:100DA000EFD3A04C4FF4006322469D499E4805F0C6
:100DB00049FF0DF541523C324FF40061204605F0E9
:100DC000A1F900220EE0974B03EB8203D3ED007AEA
:100DD0000DF541513C3191ED007A77EEC77AC3EDC4
:100DE000007A0132B2F5006FEDD301234FF0000C11
:100DF00005E0F5EEC07AF1EE10FA31D40133B3F527
:100E0000006F36D2591E874A02EB8100D0ED007A7E
:100E100002EB830292ED007AF5EEC07AF1EE10FA61
:100E2000E7DBB5EEC07AF1EE10FAE2D537EE677A7D
:100E3000B5EE407AF1EE10FA18D0F1EE677AC7EE0F
:100E4000876A07EE901AF8EE677A77EEA67A0DF5C4
:100E5000845202EB8C0242ED017A0CF1010CCDE7D9
:100E6000B5EEC07AF1EE10FAE0DAC7E7DFED6F6AAF
:100E7000E7E7BCF1020F02D90223002133E00DF5B0
:100E8000805C0CF1180C6A4C0FCCACE80F000FCC56
:100E9000ACE80F0094E803008CE803000DF58050E7
:100EA0001830FFF7CDF94FF0FF3382B20DF58051C6
:100EB0001831604802F0EBF8ADE00DF5845202EB1A
:100EC000830252ED017A9A1E0DF5845000EB8202E6
:100ED00012ED017A77EEC77A20AA02EB810242ED89
:100EE0001A7A023301319C45E7D869B100239FED9E
:100EF0004F7A994221D920AA02EB830252ED1A7A45
:100F000037EE277A0133F4E70DF5805418344A4D53
:100F10000FCD0FC495E80F0084E80F000DF5805049
:100F20001830FFF78DF94FF0FF3382B20DF5805185
:100F30001831404802F0ABF86DE007EE901AF8EE79
:100F4000677AC7EE276A9FED3D7AC7EE267A3C4A5C
:100F500013683C4800EB8301C1ED007A013303F0D4
:100F6000030313600023059305AA042105F0CAF8C2
:100F70000598FFF731FBCDE90001334A64210DF5F7
:100F80008050183002F016FF0DF580501830FFF732
:100F900057F9284C4FF0FF3382B20DF580511831CC
:100FA000204602F074F8294E002332461D49284895
:100FB00005F0C8F9274D4FF480622946304606F007
:100FC000A5F803AB04AA4FF48061284605F0CEF8DB
:100FD000DDED037AF8EE677A9FED1F7A67EE877A88
:100FE00017EE900AFFF7F8FACDE900011B4A6421D9
:100FF0000DF58050183002F0DDFE0DF580501830F0
:10100000FFF71EF94FF0FF3382B20DF58051183112
:10101000204602F03CF80DF5425D70BDCC9D0020ED
:10102000CC7D0020CC5D0020E808002000000000FE
:10103000C07B0008E0060020E87B00080000FA45BD
:10104000DC060020CC060020087C0008F4180020F4
:10105000D0080020F408002000007A40247C00081A
:1010600008B5FFF789FE08BD72B6FEE700B585B08A
:10107000002300930193029303931648164A0260DB
:101080004FF48032426083600361037680F8203041
:101090004FF08052C2624FF0C0628262C36001238F
:1010A000C36180F83030436100F0E0FA68B908238A
:1010B000009301230193002302936946054800F041
:1010C0006FFC20B905B05DF804FBFFF7CDFFFFF71B
:1010D000CBFF00BF6C0800200020014000B587B0A6
:1010E0000023029303930493059300930193144800
:1010F0004FF0804202601322426083604FF403721B
:10110000C2600361836101F049FE98B94FF48053D6
:10111000029302A90A4801F080FD68B920230093D8
:10112000002301936946064801F06EFE30B907B00E
:101130005DF804FBFFF798FFFFF796FFFFF794FFBA
:101140005807002008B50A480A4B03604FF4E13302
:10115000436000238360C36003610C2242618361AA
:10116000C36102F021F800B908BDFFF77DFF00BFA1
:10117000E00600200010014000B595B030220021AB
:1011800008A803F07BFD00230393049305930693C3
:1011900007930193204A116C41F080511164126C45
:1011A00002F080520192019A02931C4A136823F4C0
:1011B000404343F400431360136803F44043029335
:1011C000029B012308934FF48033099302230E936B
:1011D0004FF480020F9219221092A82211921293BA
:1011E0000423139308A800F0A7FC80B90F230393EE
:1011F00002210491002305934FF480520692079335
:1012000003A800F0E9FE20B915B05DF804FBFFF774
:101210002BFFFFF729FF00BF00380240007000409D
:1012200000B583B001F03EFBFFF7A6FFFFF764FDBA
:10123000FFF788FDFFF71AFFFFF750FFFFF782FF68
:101240004FF4006400940A4B0A4A40F237110A48EE
:1012500005F0E6FC2146094804F0F0FF084801F0DB
:1012600087FB22460749084800F0E8FAFEE700BF7E
:10127000F438002000000020E8080020D0080020FA
:1012800058070020CC9D00206C080020FEE7FEE7F8
:10129000FEE7FEE7FEE770477047704708B501F0CC
:1012A0001BFB08BD08B5024800F028FA08BD00BFC6
:1012B0006C08002008B5024801F090FB08BD00BF93
:1012C0005807002008B5024801F05CF908BD00BFCE
:1012D0000C08002082B0002100910B4B5A6C42F4A4
:1012E00080425A645A6C02F480420092009A019142
:1012F0001A6C42F080521A641B6C03F08053019305
:10130000019B02B0704700BF0038024070B588B042
:10131000002303930493059306930793026803F154
:10132000804303F590339A4201D008B070BD044663
:101330000025009503F58C335A6C42F480725A6490
:101340005A6C02F480720092009A01951A6B42F076
:1013500001021A631A6B02F001020192019A0295CE
:101360001A6B42F002021A631B6B03F00203029332
:10137000029B802303930326049603A9174800F0D9
:1013800001FF03960496059503A9154800F0FAFE9F
:101390001448154B036045608560C5604FF4806359
:1013A00003614FF4006343614FF4005383614FF4D2
:1013B0008073C3610562456201F048F858B9094B72
:1013C000A3639C6300221146122001F01DFA122033
:1013D00001F02AFAA9E7FFF747FEF0E70000024014
:1013E000000402400C080020106402400368B3F1BE
:1013F000804F00D0704700B583B00021019103F504
:101400000E331A6C42F001021A641B6C03F00103E4
:101410000193019B0A461C2001F0F6F91C2001F003
:1014200003FA03B05DF804FB00B589B00023039311
:101430000493059306930793026803F1804303F531
:1014400088339A4202D009B05DF804FB0021019173
:1014500003F594335A6C42F010025A645A6C02F04D
:1014600010020192019A02911A6B42F001021A6372
:101470001B6B03F001030293029B4FF4C0630393C1
:1014800002230493032306930723079303A9024827
:1014900000F078FED7E700BF0000024070477047B9
:1014A000704700004A4B5A6822F440325A605A682A
:1014B00041680A435A600268536823F4807353609A
:1014C00002685368016943EA012353600268536864
:1014D00023F0407353600268536881680B43536084
:1014E0000268936823F40063936002689368C1689C
:1014F0000B439360826A374B9A4257D002689368D5
:1015000023F07063936002689368816A0B43936071
:101510000268936823F04053936002689368C16A3D
:101520000B4393600268936823F0020393600268A0
:101530009368017E43EA4103936090F82030002BCA
:101540003FD00268536843F40063536002685368F5
:1015500023F46043536001684B68426A013A43EAEE
:1015600042334B600268D36A23F47003D36201688C
:10157000CB6AC269013A43EA0253CB6202689368BC
:1015800023F4007393600268936890F8301043EA84
:10159000412393600268936823F480639360026838
:1015A0009368416943EA81239360704702689368B6
:1015B00023F0706393600268936823F04053936054
:1015C000B0E70268536823F400635360CAE700BFC2
:1015D000002301400100000F08B50346806B026C38
:1015E00012F0500F25D1036C43F4007303640368B9
:1015F0009A6812F0405F19D1027EBAB9DA6A12F421
:10160000700F03D09A6812F4806F0FD15A6822F0DD
:1016100020025A60036C23F480730364036C13F498
:10162000805F03D1036C43F001030364836C98472C
:1016300008BD026C12F0100F02D0436D9847F7E717
:10164000826BD26C18469047F2E708B5806BC36C8A
:10165000984708BD08B5806B40230364436C43F092
:1016600004034364436D984708BD0000002836D04A
:1016700010B50446036C93B91A4B83641A4BC364C8
:101680001A4B03651A4B43651A4B8365C36D7BB1D7
:10169000E36D204698470023636484F83C30236C54
:1016A00013F0100F07D00120002384F83C3010BD48
:1016B000114BC365ECE7236C23F4885323F002033A
:1016C00043F0020323642046FFF7ECFE0020606431
:1016D000236C23F0030343F001032364E4E70120B8
:1016E000704700BF611000089D1400089F14000897
:1016F000A1140008351B00080D13000870B504463E
:1017000003681E685D6816F0020F2FD005F02002F6
:1017100062B3026C12F0100F03D1026C42F400723B
:1017200002649A6812F0405F19D1227EBAB9DA6A6F
:1017300012F4700F03D09A6812F4806F0FD15A68B8
:1017400022F020025A60236C23F480732364236CFC
:1017500013F4805F03D1236C43F001032364A36C73
:101760002046984723686FF012021A6005F0800344
:1017700016F0040F37D0002B35D0236C13F0100F68
:1017800003D1236C43F40053236423689A6812F452
:10179000401F21D19A6B12F4401F03D09A6812F4B3
:1017A000806F19D15A6812F4806F15D19A6812F0BF
:1017B000405F11D1227E7AB95A6822F080025A60C5
:1017C000236C23F480532364236C13F4807F03D1B0
:1017D000236C43F001032364A36D204698472368DC
:1017E0006FF00C021A6005F0400316F0010F10D0E4
:1017F0007BB123681B6813F0010F0AD0236C43F4FC
:1018000080332364236D2046984723686FF00102DC
:101810001A6005F0806516F0200F0DD065B1636C7D
:1018200043F00203636423686FF020051D60636D5D
:101830002046984723681D6070BD000010B582B037
:1018400013460022019290F83C20012A00F0948077
:101850000446012280F83C200268906810F0010FD5
:1018600013D1906840F001009060464A1068464AE3
:10187000A2FB0020800C00EB4000019002E00198E8
:101880000138019001980028F9D12268906810F47D
:10189000807F03D0906820F4807090602268906808
:1018A00010F0010F5DD0206C20F4E06020F001000A
:1018B00040F480702064526812F4806F05D0226C6E
:1018C00022F4405242F480522264226C12F4805F6F
:1018D00034D0626C22F006026264002284F83C205C
:1018E000A26B2A48D063A26B29481064A26B2948D6
:1018F000D06422686FF0220010602068426842F0D5
:10190000806242602068826842F48072826020684F
:101910000A4600F14C01A06B00F0FEFD1E4B5B6817
:1019200013F01F0F0DD123689A6812F0405F25D184
:101930009A6842F080429A6000201BE000226264B4
:10194000CBE72368154A934201D0002012E09A6841
:1019500012F0405F14D19A6842F080429A600020F1
:1019600008E0236C43F010032364636C43F001032D
:101970006364002002B010BD0220FBE70020F9E7FD
:101980000020F7E7E404002083DE1B43D91500089C
:101990004B160008551600080023014000200140A6
:1019A00030B482B00022019290F83C20012A00F06D
:1019B000B6800346012280F83C200A68092A40D9F3
:1019C0000468E06892B202EB42021E3A4FF0070C44
:1019D0000CFA02F220EA0202E2601C68E0680A885F
:1019E00002EB42021E3A8D6805FA02F20243E260FF
:1019F0004A68062A3CD81C68606B02EB8202053AF2
:101A00004FF01F0C0CFA02F220EA020262631C681B
:101A1000606B4A6802EB8202053AB1F800C00CFA2A
:101A200002F20243626318683E4A904250D018683E
:101A30003C4A904255D0002083F83C0002B030BCB4
:101A400070470468206992B202EB42024FF0070C23
:101A50000CFA02F220EA020222611C6820690A885C
:101A600002EB42028D6805FA02F202432261BFE7EF
:101A70000C2A16D81D68286B02EB8202233A1F2419
:101A800004FA02F220EA02022A631D68286B4A68FF
:101A900002EB8202233A0C8804FA02F202432A6320
:101AA000C1E71D68E86A02EB8202413A1F2404FA8A
:101AB00002F220EA0202EA621D68E86A4A6802EB62
:101AC0008202413A0C8804FA02F20243EA62AAE76F
:101AD0000A68122AABD11448426842F4800242607C
:101AE000A5E70A68103A012AA5D80F48426842F4CF
:101AF000000242600A68102A9DD10C4A12680C4903
:101B0000A1FB0212920C02EB82025200019202E04F
:101B1000019A013A0192019A002AF9D18BE7022039
:101B20008CE700BF0020014000230140E4040020B6
:101B300083DE1B4370470000002800F0E08170B591
:101B400082B00446036813F0010F3BD09F4B9B68A3
:101B500003F00C03042B2CD09C4B9B6803F00C036C
:101B6000082B21D06368B3F5803F4FD0B3F5A02F89
:101B700052D0964B1A6822F480321A601A6822F406
:101B800080221A606368002B50D000F0B1FE054639
:101B90008E4B1B6813F4003F14D100F0A9FE401BCC
:101BA0006428F5D90320B1E1884B5B6813F4800FFA
:101BB000D8D0864B1B6813F4003F03D06368002B1A
:101BC00000F09F81236813F0020F54D07F4B9B6875
:101BD00013F00C0F3ED07D4B9B6803F00C03082BD9
:101BE00033D0E368002B68D0794B01221A6000F0F3
:101BF0007FFE0546754B1B6813F0020F54D100F0B1
:101C000077FE401B0228F5D903207FE16F4A136855
:101C100043F480331360B5E76C4B1A6842F48022BA
:101C20001A601A6842F480321A60ABE700F060FE76
:101C30000546664B1B6813F4003FC3D000F058FE06
:101C4000401B6428F5D9032060E1604B5B6813F406
:101C5000800FC6D15D4B1B6813F0020F03D0E36801
:101C6000012B40F05081594A136823F0F803216991
:101C700043EAC1031360236813F0080F42D063697D
:101C80006BB3534B0122C3F8802E00F031FE0546A2
:101C90004E4B5B6F13F0020F34D100F029FE401B56
:101CA0000228F5D9032031E1484A136823F0F803EC
:101CB000216943EAC1031360DDE7454B00221A6046
:101CC00000F016FE0546414B1B6813F0020FD2D000
:101CD00000F00EFE401B0228F5D9032016E13C4B14
:101CE0000022C3F8802E00F003FE0546374B5B6FE1
:101CF00013F0020F06D000F0FBFD401B0228F5D9BF
:101D0000032003E1236813F0040F77D02F4B1B6CE3
:101D100013F0805F33D1002301932C4B1A6C42F0F7
:101D200080521A641B6C03F080530193019B0125C0
:101D3000284B1B6813F4807F23D0A368012B34D079
:101D4000052B38D0214B1A6F22F001021A671A6F47
:101D500022F004021A67A368002B3DD000F0C8FDF2
:101D600006461A4B1B6F13F0020F46D100F0C0FD60
:101D7000801B41F288339842F3D90320C6E0002546
:101D8000D6E7144A136843F48073136000F0B0FD83
:101D90000646104B1B6813F4807FCED100F0A8FDDF
:101DA000801B0228F5D90320B0E0084A136F43F0E6
:101DB00001031367CFE7054B1A6F42F004021A675D
:101DC0001A6F42F001021A67C5E700BF00380240EF
:101DD000000047420070004000F08AFD0646524B6A
:101DE0001B6F13F0020F08D000F082FD801B41F240
:101DF00088339842F3D9032088E0EDB9A369002B1A
:101E000000F08380484A926802F00C02082A51D000
:101E1000022B17D0454B00221A6600F069FD0446DC
:101E2000414B1B6813F0007F42D000F061FD001BA6
:101E30000228F5D9032069E03B4A136C23F0805354
:101E40001364DBE7394B00221A6600F051FD0546AA
:101E5000354B1B6813F0007F06D000F049FD401B96
:101E60000228F5D9032051E0E369226A1343626A2C
:101E700043EA8213A26A5208013A43EA0243E26A41
:101E800043EA0263284A5360284B01221A6600F095
:101E90002FFD0446244B1B6813F0007F06D100F091
:101EA00027FD001B0228F5D903202FE000202DE09C
:101EB00000202BE0012B2BD01B4B5B6803F480012F
:101EC000E269914226D103F03F02216A8A4223D17E
:101ED000616A47F6C0721A40B2EB811F1ED103F44B
:101EE0004031A26A5208013AB1EB024F18D103F017
:101EF0007063E26AB3EB026F14D1002006E00120A8
:101F00007047012002E0012000E0002002B070BD17
:101F10000120FBE70120F9E70120F7E70120F5E7C1
:101F20000120F3E70120F1E70038024000004742BA
:101F300008B5264B9B6803F00C03042B41D0082BFB
:101F400041D1224B5A6802F03F025B6813F4800FC4
:101F500012D01E4B5968C1F388111D480023A1FB04
:101F60000001FEF769FE194B5B68C3F301430133BF
:101F70005B00B0FBF3F027E0144B5868C0F3881007
:101F80004FEA401CBCEB000C6EEB0E0E4FEA8E13BA
:101F900043EA9C634FEA8C11B1EB0C0163EB0E0337
:101FA000DB0043EA5173C90011EB000C43F100035D
:101FB000990200234FEA8C2041EA9C51FEF73CFE37
:101FC000D1E7034800E0034808BD00BF00380240E5
:101FD00040787D010024F400002800F09B8070B55B
:101FE0000D4604464F4B1B6803F007038B4208D293
:101FF000CBB24C4A1370136803F007038B4240F0D6
:102000008B80236813F0020F17D013F0040F04D055
:10201000454A936843F4E0539360236813F0080F34
:1020200004D0414A936843F4604393603E4A936806
:1020300023F0F003A1680B439360236813F0010FB2
:1020400032D06368012B21D09A1E012A25D9364A45
:10205000126812F0020F61D033498A6822F003023D
:1020600013438B6000F044FC06462F4B9B6803F043
:102070000C036268B3EB820F16D000F039FC801BB2
:1020800041F288339842F0D9032042E0264A126890
:1020900012F4003FE0D101203BE0234A126812F025
:1020A000007FD9D1012034E01E4B1B6803F00703E9
:1020B000AB4207D9EAB21B4B1A701B6803F0070347
:1020C000AB422DD1236813F0040F06D0164A936853
:1020D00023F4E053E1680B439360236813F0080F87
:1020E00007D0114A936823F46043216943EAC1038E
:1020F0009360FFF71DFF0C4B9B68C3F303130B4A60
:10210000D35CD8400A4B18600A4B186800F0A4FB57
:10211000002070BD012070470120FAE70120F8E798
:102120000120F6E7003C024000380240507C0008E5
:10213000E4040020E0040020014B1868704700BF51
:10214000E404002008B5FFF7F7FF044B9B68C3F3D6
:102150008223034AD35CD84008BD00BF0038024048
:10216000487C000808B5FFF7E7FF044B9B68C3F302
:102170004233034AD35CD84008BD00BF0038024058
:10218000487C000800230F2B00F2D78070B582B086
:1021900065E085684FEA430E032404FA0EF425EA4D
:1021A0000405CC6804FA0EF42C438460446824EAE5
:1021B00002044A68C2F300129A40224342605CE083
:1021C000DC08083450F8242003F00705AD004FF078
:1021D0000F0E0EFA05FE22EA0E0E0A69AA4042EA26
:1021E0000E0240F824205CE0042200E0002202FA03
:1021F0000EF22A430234514D45F82420504A946887
:102200006FEA0C0224EA0C054E6816F4801F01D018
:102210004CEA04054A4CA560E46802EA04054E68ED
:1022200016F4001F01D04CEA0405454CE5606468D3
:1022300002EA04054E6816F4003F01D04CEA04059A
:102240003F4C6560246822404D6815F4803F01D002
:102250004CEA04023A4C226001330F2B6BD8012266
:102260009A400C6804EA020C32EA0404F4D14C6887
:1022700004F00304013C012C8BD94A6802F00302EC
:10228000032A09D0C4685D000322AA4024EA02049C
:102290008A68AA402243C2604A6802F00302022A06
:1022A0008ED004684FEA430E032202FA0EF224EAAB
:1022B00002044A6802F0030202FA0EF222430260AC
:1022C0004A6812F4403FC7D0002201921D4A546C64
:1022D00044F480445464526C02F480420192019AA6
:1022E0009C08A51C154A52F8255003F0030E4FEA2E
:1022F0008E0E0F2202FA0EF225EA0205124A9042D1
:102300003FF474AF02F5806290420ED002F5806215
:1023100090420CD002F5806290420AD002F58062B1
:1023200090423FF461AF072261E701225FE702229A
:102330005DE703225BE702B070BD704700380140E3
:10234000003C0140003802400000024030B4056803
:102350002C6824F480242C60046863608368402B1C
:1023600005D0036899600368DA6030BC7047036881
:102370009A600368D960F8E710B40368D9B21039DD
:102380000C4AA2FB014212090B4CA25CC2655F29F8
:1023900009D923F47F7323F0030304338365806D2D
:1023A0005DF8044B704723F47F7323F003038365C8
:1023B000F5E700BFABAAAAAA407C0008836A82693D
:1023C00092B9012B0AD0022B02D00BB1002070472A
:1023D000C36A13F0807F28D100207047C36AB3F12D
:1023E000C07F24D000207047B2F5005F09D0022BD7
:1023F00025D9032B25D1C36A13F0807F23D1002078
:102400007047032B03D8DFE803F01404140A0020FC
:102410007047C36A13F0807F0DD100207047C36AF4
:10242000B3F1C07F09D00020704701207047012020
:10243000704701207047012070470120704701203C
:1024400070470020704701207047000070B50446B7
:1024500000F04EFA002C5BD00546022384F835309C
:10246000002384F834302268136823F001031360DA
:1024700023681A6812F0010F0AD000F039FA431BE2
:10248000052BF5D920236365032084F8350070BD42
:102490001A68204911406268A0680243E06802435C
:1024A0002069024360690243A0690243E069024374
:1024B000206A02430A43616A04291ED01A60266812
:1024C000756925F00705636A1D43042B07D1A36ACC
:1024D0001D43E36A1BB12046FFF770FF90B9756199
:1024E0002046FFF749FFE26D3F23934083600020C1
:1024F0006065012384F83530C9E7E16A206B014348
:102500000A43DBE740236365012084F83500BEE71A
:102510000120BCE73F8010F038B50446856D90F887
:10252000340001282BD0012084F8340094F83500C1
:10253000C0B2012804D0002384F83430022038BD12
:10254000022084F83500002060652046FFF7FEFE7B
:10255000E26D3F239340AB602268136843F016039B
:102560001360236C23B12268136843F008031360DF
:102570002268136843F0010313600020DFE70220A4
:10258000DDE70000F0B583B0044600230193724BF1
:102590001D68724BA3FB0535AD0A876D3E68C26DA1
:1025A00008239340334210D003681A6812F0040FD6
:1025B0000BD01A6822F004021A60C26D08239340FF
:1025C000BB60436D43F001034365E26D012393401B
:1025D000334209D02268526912F0800F04D0BB60E8
:1025E000636D43F002036365E26D0423934033425D
:1025F00009D02268126812F0020F04D0BB60636D2C
:1026000043F004036365E26D10239340334224D00A
:102610002268126812F0080F1FD0BB6023681A6886
:1026200012F4802F0DD01B6813F4002F04D1236CFB
:102630009BB12046984710E0A36C73B120469847A1
:102640000BE01A6812F4807F03D11A6822F00802A6
:102650001A60236C0BB120469847E26D202393400B
:10266000334255D02268126812F0100F50D0BB6070
:1026700094F83530DBB2052B0ED023681A6812F4BB
:10268000802F33D01B6813F4002F2AD1636C002BEA
:102690003ED0204698473BE02268136823F016039B
:1026A00013602268536923F080035361236CA3B144
:1026B0002268136823F008031360E26D3F23934000
:1026C000BB60012384F83530002384F83430236D57
:1026D000002B3FD0204698473CE0A36C002BE7D16D
:1026E000EBE7E36BA3B12046984711E01A6812F4B8
:1026F000807F09D11A6822F010021A60012384F841
:102700003530002384F83430E36B0BB12046984712
:10271000636DFBB1636D13F0010F17D0052384F8CF
:1027200035302268136823F001031360019B0133E5
:102730000193AB4204D823681B6813F0010FF5D155
:10274000012384F83530002384F83430E36C0BB176
:102750002046984703B0F0BDE4040020B5814E1B2D
:10276000002807DB00F01F02400901239340024AC2
:1027700042F82030704700BF00E100E0002808DB8D
:102780000901C9B200F1604000F5614080F8001312
:10279000704700F00F000901C9B2014B195470478E
:1027A00014ED00E000B500F00700C0F1070CBCF12B
:1027B000040F28BF4FF0040C031D062B0FD9C31EB6
:1027C0004FF0FF3E0EFA0CF021EA000199400EFA9C
:1027D00003FE22EA0E0241EA02005DF804FB002338
:1027E000EEE70000074AD36823F4E0631B041B0CE8
:1027F000000200F4E060034343F0BF6343F400339E
:10280000D360704700ED00E010B50446054BD86872
:10281000C0F30220FFF7C6FF01462046FFF7AEFFD8
:1028200010BD00BF00ED00E008B5FFF799FF08BD3F
:102830000138B0F1807F0BD24FF0E0235861054A98
:10284000F02182F823100020986107221A61704756
:102850000120704700ED00E010B504460E4B1A78D9
:102860004FF47A73B3FBF2F30C4A1068B0FBF3F049
:10287000FFF7DEFF68B90F2C01D901200AE0002222
:1028800021464FF0FF30FFF7BFFF054B1C600020D3
:1028900000E0012010BD00BFDC040020E4040020A3
:1028A000E004002008B50B4B1A6842F400721A606D
:1028B0001A6842F480621A601A6842F480721A60E0
:1028C0000320FFF78FFF0F20FFF7C6FFFEF702FD83
:1028D000002008BD003C0240034A1168034B1B78EE
:1028E0000B441360704700BFCCAD0020DC04002017
:1028F000014B1868704700BFCCAD0020704770478F
:10290000704770477047704770477047704770470F
:1029100010B4036A046A24F001040462846924F098
:10292000F00C4CEA021223F00A030B4382610362AB
:102930005DF8044B704710B4036A046A24F0100475
:102940000462846924F4704C4CEA023223F0A00340
:1029500043EA0113826103625DF8044B70478368A8
:1029600023F070030B4343F00703836070470000BC
:1029700090F83D30DBB2012B2AD1022380F83D30A4
:102980000368154A934218D0B3F1804F15D0A2F5D1
:102990007C42934211D002F5806293420DD002F541
:1029A0008062934209D002F59A32934205D01A68A8
:1029B00042F001021A60002070479A6802F0070294
:1029C000062A07D01A6842F001021A6000207047F8
:1029D00001207047002070470000014070B5044698
:1029E0000368DE681D6915F0020F12D016F0020FA1
:1029F0000FD06FF002021A610123037703689B690D
:102A000013F0030F00F08380D0F890309847002334
:102A1000237715F0040F13D016F0040F10D023689D
:102A20006FF004021A610223237723689B6913F471
:102A3000407F74D0D4F89030204698470023237705
:102A400015F0080F13D016F0080F10D023686FF0A0
:102A500008021A61042323772368DB6913F0030F4C
:102A600066D0D4F89030204698470023237715F09D
:102A7000100F13D016F0100F10D023686FF0100253
:102A80001A61082323772368DB6913F4407F58D049
:102A9000D4F89030204698470023237715F0010F93
:102AA0000AD016F0010F07D023686FF001021A61F7
:102AB000D4F880302046984715F0800F0AD016F0E1
:102AC000800F07D023686FF080021A61D4F8B0300D
:102AD0002046984715F0400F0AD016F0400F07D057
:102AE00023686FF040021A61D4F888302046984776
:102AF00015F0200F0AD016F0200F07D023686FF0D2
:102B000020021A61D4F8A8302046984770BDD0F84A
:102B100098309847D4F89C302046984777E7D4F807
:102B2000983020469847D4F89C302046984785E74F
:102B3000D4F8983020469847D4F89C3020469847DF
:102B400093E7D4F8983020469847D4F89C30204634
:102B50009847A1E70368294A90420ED0B0F1804F10
:102B60000BD0A2F57C42904207D002F580629042E1
:102B700003D002F58062904203D123F070034A68CB
:102B800013431E4A90421AD0B0F1804F17D0A2F5DD
:102B90007C42904213D002F5806290420FD002F541
:102BA000806290420BD002F59A32904207D002F533
:102BB0008062904203D002F58062904203D123F4F8
:102BC0004073CA68134323F080034A6913430360C8
:102BD0008B68C3620B688362084B98420AD001235A
:102BE0004361036913F0010F03D0036923F001036C
:102BF000036170470B690363F1E700BF0000014008
:102C000010B4846824F47F4C42EA03220A4342EA67
:102C10000C0282605DF8044B704790F83C30012B49
:102C200078D010B50446012380F83C30022380F8A8
:102C30003D300268936823F47F4323F07703936069
:102C40000B68602B4CD029D8402B54D00CD9502B7A
:102C500022D1CA6849680068FFF75AFE50212068EF
:102C6000FFF77DFE002005E0202B0DD009D9302B89
:102C70000AD00120012384F83D30002384F83C3041
:102C800010BD0BB1102B05D119462068FFF767FE68
:102C90000020EFE70120EDE70120EBE7B3F5805FCF
:102CA00034D0B3F5005F0CD1CB684A6889680068FE
:102CB000FFF7A6FF2268936843F4804393600020E7
:102CC000D8E7702B24D1CB684A6889680068FFF781
:102CD00097FF2268936843F0770393600020C9E769
:102CE000CA6849680068FFF726FE60212068FFF780
:102CF00036FE0020BEE7CA6849680068FFF708FE94
:102D000040212068FFF72BFE0020B3E70020B1E749
:102D10000120AFE702207047134BC0F88030134BFF
:102D2000C0F88430124BC0F88830124BC0F88C3099
:102D3000114BC0F89030114BC0F89430104BC0F8D4
:102D40009830104BC0F89C300F4BC0F8A0300F4BA0
:102D5000C0F8A4300E4BC0F8A8300E4BC0F8AC3011
:102D60000D4BC0F8B0307047FD280008FF28000860
:102D70000B2900080D29000803290008052900086F
:102D80000129000807290008092900080F2900085F
:102D9000852E0008872E0008892E000880B310B504
:102DA000044690F83D30F3B1022384F83D302146CB
:102DB00051F8040BFFF7CEFE012384F8463084F867
:102DC0003E3084F83F3084F8403084F8413084F855
:102DD000423084F8433084F8443084F8453084F835
:102DE0003D30002010BD80F83C30FFF795FFA36C0C
:102DF0001BB1A36C20469847D6E7024BA364F8E7C3
:102E000001207047ED13000890F83C20012A35D0CE
:102E100010B40346012280F83C20022280F83D20B5
:102E200002685068946820F0700C086840EA0C0052
:102E300050601A681248824212D0B2F1804F0FD00F
:102E4000A0F57C4082420BD000F58060824207D022
:102E500000F58060824203D000F59A30824204D1AE
:102E600024F08004496821439160012283F83D20C9
:102E7000002083F83C005DF8044B70470220704747
:102E800000000140704770477047704770477047B7
:102E9000704770477047704770477047026802F18B
:102EA0000C0353E8003F23F490730C3242E80031E6
:102EB0000029F3D1026802F1140353E8003F23F024
:102EC0000103143242E800310029F3D1036B012BD6
:102ED00005D0202380F84230002303637047026846
:102EE00002F10C0353E8003F23F010030C3242E8D8
:102EF00000310029F3D1ECE710B5044602681369EC
:102F000023F44053C1680B431361836802691A4379
:102F100043691A43C3691A430168CB6823F4164313
:102F200023F00C031343CB600268536923F440730E
:102F300081690B4353610368314A934206D002F51D
:102F40008062934202D0FFF7FDF801E0FFF70AF933
:102F5000E369B3F5004F29D00021031849411B183C
:102F600041F10001C90041EA5371DB0018186368A0
:102F70004FEA83024FEA937341F10001FDF75CFED3
:102F8000204AA2FB00314909642303FB11031B0102
:102F90003233A2FB03235B0903F0F00202EB0112C0
:102FA00003F00F03216813448B6010BD0023021847
:102FB00043EB0301121841F10001C90041EA5271CB
:102FC000D200101841F10001626892185B41FDF7D0
:102FD00033FE0C4AA2FB00314909642303FB1103B1
:102FE000DB003233A2FB03235B095A0002F4F872C0
:102FF00002EB011203F00703216813448B60D4E74E
:10300000001001401F85EB512DE9F04383B00546C8
:103010000E4617469946DDF828802B681C6836EA6C
:1030200004040CBF01240024BC4228D1B8F1FF3FA6
:10303000F3D0FFF75DFCA0EB0900404523D8B8F1C1
:10304000000F22D02B68DA6812F0040FE5D0802E32
:10305000E3D0402EE1D01A6812F0080FDDD0002432
:1030600001941A6801925B680193019B2846FFF75F
:1030700015FF08236B6485F84040012000E0002024
:1030800003B0BDE8F0830320FAE70320F8E72DE959
:10309000F04182B01E4690F84130DBB2202B56D171
:1030A00004460D469046002955D00AB901204FE04C
:1030B00000234364212380F84130FFF719FC0746C1
:1030C000A4F82480A4F82680A368B3F5805F02D01A
:1030D0004FF0000814E023692BB34FF000080FE015
:1030E000202384F84130032032E038F8023B226884
:1030F000C3F308035360E28C92B2013A92B2E284C5
:10310000E38C9BB293B100963B460022802120467F
:10311000FFF77AFF0028E3D1002DE6D015F8012B48
:1031200023685A60E7E7A8460025E9E700963B4692
:10313000002240212046FFF767FF18B9202384F8BA
:10314000413005E0202384F84130032000E00220D4
:1031500002B0BDE8F0810120FAE70000094B83646A
:10316000094BC364094B0365094B4365094B8365F0
:10317000094BC365094B0366094B4366094BC3669C
:10318000704700BF8D2E00088B2E0008912E00087E
:103190008F2E0008932E0008952E0008972E000809
:1031A000992E00089B2E0008002834D010B5044644
:1031B00090F8413013B3242384F841302268D36857
:1031C00023F40053D3602046FFF796FE226813696C
:1031D00023F4904313612268536923F02A03536157
:1031E0002268D36843F40053D36000206064202336
:1031F00084F8413084F84230606310BD80F840307C
:10320000FFF7ACFF236F1BB1236F20469847D2E72F
:10321000024B2367F8E70120704700BF291400081C
:10322000034AD2F8883043F47003C2F888307047FC
:1032300000ED00E010B503460C4A0D490D4800684A
:1032400040B10C4800680344521A934206D8094A18
:10325000136010BD0748084C0460F2E701F0EAFC77
:103260000C2303604FF0FF30F3E700BF00000120A4
:1032700000080000D0AD002020AF002001207047E2
:1032800008B501F0D7FC162303604FF0FF3008BDEE
:1032900008B54FF0FF31FFF7F3FFFEE770B50C46BE
:1032A0001646002506E0AFF30080214601F8010B29
:1032B00001350C46B542F6DB304670BD70B50C46A4
:1032C0001646002504E014F8010BAFF30080013529
:1032D000B542F8DB304670BD4FF0FF3070474FF419
:1032E00000534B600020704701207047002070475A
:1032F000DFF834D0FFF794FF0C480D490D4A002346
:1033000002E0D458C4500433C4188C42F9D30A4A9A
:103310000A4C002301E013600432A242FBD300F008
:1033200011F8FDF77DFF704700000120000000202C
:10333000B00600203CB40108B006002020AF0020F9
:10334000FEE7000070B50D4D0D4C641BA410002667
:10335000A64209D10B4D0C4C04F026FC641BA410B2
:103360000026A64205D170BD55F8043B98470136AA
:10337000EEE755F8043B98470136F2E734B401080C
:1033800034B4010834B4010838B401082DE9F04F11
:1033900085B057EC106BDDE90E9B002F0C46904674
:1033A0001946B8BF32463B462BF0200ABBBF07F197
:1033B00000431F4600232D23B8BF1646BAF1460F1F
:1033C0000B7005D0BAF1450F00D10134022100E0A5
:1033D000032103AB019302AB009347EC106B4B4608
:1033E000224600F0E9FDBBF1670F054619D118F040
:1033F000010F0ED005EB04080022002330463946A9
:10340000FDF7AAFB08B1CDF80C803022039B4345A1
:1034100021D3039B109A5B1B2846136005B0BDE8BF
:10342000F08FBBF1470FE2D0BAF1460F00EB040872
:10343000E2D10378302B0AD10022002330463946EE
:10344000FDF78AFB18B9C4F10104C9F80040D9F8A6
:1034500000309844D0E7591C03911A70D6E7F7B5AD
:103460000029BABF49422D232B230929027043703A
:1034700029DD0DF107031D460A271A46B1FBF7F6B1
:1034800007FB1614303402F8014C0C46632C03F190
:10349000FF333146F1DC3031941E03F8011C411C2E
:1034A0002346AB420AD30DF109039B1AAC4288BFF5
:1034B000002302330344181A03B0F0BD13F8016B64
:1034C00001F8016FEDE7302330318370C170031DC7
:1034D000F1E700002DE9F04F8DB00C46DDF8588083
:1034E00016461F46054601F0D5FB036804931846AF
:1034F000FCF7A6FE00230A93D8F8003005900733A6
:1035000023F0070303F1080294F818A0D4F800B0E0
:10351000C8F80020D3E9008929F000430793CDF8CB
:103520001880C4E91289DDE90601A04B4FF0FF3293
:10353000FDF744FB70BBDDE906019C4B4FF0FF3209
:10354000FDF71EFB30BB0022002340464946FDF735
:103550000DFB10B12D2384F84330954A954BBAF1F9
:10356000470F94BF90469846032323612BF0040332
:1035700023604FF00009009733460BAA21462846E6
:1035800000F0DAF9013040F096804FF0FF300DB0D6
:10359000BDE8F08F42464B4640464946FDF70EFBDC
:1035A00040B14B46002BBCBF2D2384F84330824AE8
:1035B000824BD4E763685A1C26D1062363604BF420
:1035C00080620023226003930AABCDE901A309AB1B
:1035D0000093616849EC108B0DF123032846FFF737
:1035E000D5FEBAF1670F0999804615D1CB1C3BDB9C
:1035F0006368994238DC0A9B994255DB2368216154
:10360000D80745D54B1C42E00AF0DF02472AD6D145
:10361000002BD4D10123D1E7BAF1470F07D1C81C41
:1036200025DB63688B4222DB4FF0670AE3E7BAF1E0
:10363000650F1FD80139524604F150000991FFF778
:103640000EFF0A9A1318012A8146236102DC2268C0
:10365000D20701D5013323619DF82330002B8AD096
:103660002D2384F8433086E74FF0650AE2E74FF0F8
:10367000450ADFE7BAF1660FBDD1002963680BDDAB
:10368000216113B92268D00702D501330B442361AD
:10369000A1654FF00009DFE713B92268D20701D511
:1036A0000233F4E70123F2E70029D4BFC1F102029B
:1036B00001221344EBE723685A0507D423694246E5
:1036C00031462846B84701302BD15EE7BAF1650F85
:1036D00040F2DC80D4E9120100220023FDF73CFA1D
:1036E000002833D0364A012331462846B8470130F6
:1036F0003FF44BAFDDE90938434502DB2368D807C7
:103700000FD5DDE9042331462846B84701303FF4A0
:103710003CAF4FF0000908F1FF3804F11A0AC84520
:1037200009DC23689B0700F10281E0680B9B98424B
:10373000B8BF18462BE70123524631462846B84702
:1037400001303FF422AF09F10109E8E7099B002BA2
:1037500038DC1B4A012331462846B84701303FF484
:1037600014AFDDE9093959EA030302D12368D90707
:10377000D7D5DDE9042331462846B84701303FF468
:1037800004AF4FF0000A04F11A0B099B5B4253454A
:1037900001DC4B4693E701235A4631462846B84799
:1037A00001303FF4F2AE0AF1010AEEE7FFFFEF7FCE
:1037B000607C0008647C0008687C00086C7C000861
:1037C000707C0008A36DDDF828A05345A8BF5346C0
:1037D000002B994636DC4FF0000B29EAE97904F119
:1037E0001A02A36D0693A3EB09035B4531DC099B29
:1037F0009A453ADC2368DA0737D4099BAAEB030918
:10380000069BAAEB03039945A8BF9946B9F1000F9F
:1038100033DC4FF0000829EAE97904F11A0B099B1F
:10382000AAEB0303A3EB090343457FF77AAF012318
:103830005A4631462846B84701303FF4A6AE08F153
:103840000108ECE7424631462846B8470130C2D16C
:103850009BE60123314628460692B84701303FF4E3
:1038600094AE069A0BF1010BBBE7DDE90423314668
:103870002846B8470130C0D187E6069A4B464244F5
:1038800031462846B8470130C3D17EE6DDF828A08E
:10389000BAF1010F01DCDB0736D501234246314680
:1038A0002846B84701303FF470AEDDE904233146C5
:1038B0002846B84701303FF468AED4E9120100222F
:1038C00000230AF1FF3AFDF747F9C0B9534608F162
:1038D000010231462846B84701300CD155E6012394
:1038E0005A4631462846B84701303FF44EAE08F1FB
:1038F0000108D045F3DB4B4604F15002E0E64FF0FF
:10390000000804F11A0BF4E701234246E1E7012322
:103910004A4631462846B84701303FF436AE08F1F2
:103920000108E3680B995B1A4345F0DCFDE64FF0B4
:10393000000804F11909F4E72DE9F0471646984606
:103940008A680B69DDF820909342B8BF1346336054
:1039500091F8432007460C460AB1013333602368CF
:10396000990642BF336802333360256815F00605B7
:1039700006D104F1190AE36832689B1AAB4226DCCF
:1039800094F843302268003B18BF012392062BD4E1
:1039900004F1430241463846C84701301ED023682F
:1039A000226903F00603042B02BFE5683368ED1AB1
:1039B000A3680CBF25EAE57500259342C4BF9B1A96
:1039C000ED1800261A34B5421AD1002008E0012370
:1039D000524641463846C847013003D14FF0FF30C8
:1039E000BDE8F0870135C6E7E1185A1C302081F8A0
:1039F0004300224494F8451082F843100233C7E78D
:103A00000123224641463846C8470130E6D00136F8
:103A1000D9E700002DE9FF470F7E0C9E782F9146D5
:103A200080460C469A4601F1430207D8622F0AD815
:103A3000002F00F0DD80582F00F0C38004F1420613
:103A400084F842703AE0A7F16303152BF6D801A180
:103A500051F823F0AD3A0008C13A00083D3A000899
:103A60003D3A00083D3A00083D3A0008C13A0008D6
:103A70003D3A00083D3A00083D3A00083D3A00084A
:103A8000D73B00084F3B00088F3B00083D3A000839
:103A90003D3A0008F93B00083D3A00084F3B00085A
:103AA0003D3A00083D3A0008973B000833681A1D6C
:103AB0001B68326004F1420684F842300123A8E01A
:103AC00031682368081D30601E0601D50D6803E0CB
:103AD0005D06FBD5B1F900506168002D78DA2D2024
:103AE000002984F84300A1602DDA5E486D420A2364
:103AF0001646B5FBF3F103FB1157C75D06F8017DD0
:103B00002F46BB420D46F4D9082B0BD12368DF07A3
:103B100008D5236961689942DEBF302306F8013C6D
:103B200006F1FF36921B2261CDF800A04B4603AA96
:103B300021464046FFF700FF01306FD14FF0FF30C4
:103B400004B0BDE8F08723F004032360CDE72168CB
:103B50003368080653F8045B02D4490648BFADB287
:103B60006F2F4048336014BF0A230823002184F8D4
:103B700043106668A660002EBADB216821F00401BC
:103B80002160002DB4D1002EB2D11646BCE72368C7
:103B900043F0200323603448782784F84570236875
:103BA00031681F0651F8045B02D45F0648BFADB20E
:103BB0003160D90744BF43F0200323601DB11023B7
:103BC000D4E72848E9E7236823F020032360F6E7D9
:103BD00024480A23CDE7336825686169181D3060E1
:103BE0002E061B6801D5196002E06806FBD5198016
:103BF00000232361164697E733681A1D32601E685A
:103C0000626800213046FCF7CBFA08B1801B606087
:103C100063682361002384F8433085E723693246D3
:103C200049464046D047013088D023689B0714D4CA
:103C3000E068039B9842B8BF184681E701233246EB
:103C400049464046D04701303FF478AF0135E3683C
:103C500003995B1AAB42F1DCEAE7002504F119068F
:103C6000F5E700BF727C0008837C0008002310B5D4
:103C70000446C0E90033C0E90433836081814366B0
:103C8000C2818361194608225C3000F0F7FF0D4BBA
:103C900063620D4BA3620D4BE3620D4B23630D4B2F
:103CA00024629C4206D003F16802944202D0D033D1
:103CB0009C4205D104F15800BDE8104000F0E6BF79
:103CC00010BD00BF1D3E00083F3E0008773E0008C3
:103CD0009B3E0008D4AD0020024A0349034800F08F
:103CE000AFBF00BFE804002075500008F8040020B2
:103CF00041680C4B994210B5044601D001F0BAF965
:103D0000A168094B994202D0204601F0B3F9E1685D
:103D1000064B994204D02046BDE8104001F0AAB9F4
:103D200010BD00BFD4AD00203CAE0020A4AE0020EA
:103D300010B50B4B0B4C0C4A1A6020460022042194
:103D4000FFF794FF04F1680001220921FFF78EFFBD
:103D500004F1D0000222BDE810401221FFF786BF17
:103D60000CAF0020D4AD0020D93C0008014800F081
:103D70008EBF00BF11AF0020014800F089BF00BF17
:103D800011AF002010B50446FFF7F0FF236A1BB106
:103D9000BDE81040FFF7F0BF044B2362044B1B68E3
:103DA000002BF5D1FFF7C4FFF2E700BFF13C00089C
:103DB0000CAF00200CB430B5174B0C1E1D689DB025
:103DC00008DA8B232B604FF0FF301DB0BDE8304088
:103DD00002B070474FF40273ADF8143014BF04F111
:103DE000FF332346049307934FF6FF730290069028
:103DF000ADF81630209A21AB02A92846019300F0B5
:103E0000A9FF431CBCBF8B232B60002CDDD0029B81
:103E100000221A70D9E700BFF404002010B50C4648
:103E2000B1F90E1001F036FA0028ABBF636DA3891B
:103E30001B1823F48053ACBF6365A38110BD2DE92B
:103E4000F0411F468B89DB0505460C46164605D515
:103E5000B1F90E100223002201F00AFAA389B4F985
:103E60000E1023F48053A38132463B462846BDE81A
:103E7000F04100F0CDBE10B50C46B1F90E1001F0C6
:103E8000F7F9431CA38915BF606523F4805343F4FD
:103E90008053A38118BFA38110BDB1F90E1001F0AA
:103EA00055B82DE9F74F03690C69A34207467EDB3D
:103EB000013C01F11408A30000F11405009305EB87
:103EC0008403019358F8243055F8242001339A4292
:103ED00008EB8409B2FBF3F62ED34FF0000AC44678
:103EE000AE46D3465CF8043B98B206FB00A0020C39
:103EF0001B0C06FB0323DEF8002080B292B2121ADC
:103F00005A44DEF800004FEA134A9BB2C3EB224347
:103F100003EB104392B242EA0342E1454EF8042B10
:103F20004FEA234BDED2009BEB582BB9019B043B9D
:103F30009D421A462FD33C61384601F059FC0028B7
:103F400025DB2946002058F8042BD1F800C01FFAC1
:103F500082FE1FFA8CF3A3EB0E030344120CC2EB98
:103F6000234202EB1C429BB243EA0243C14541F8A3
:103F7000043B4FEA2240E6D255F8242005EB8403A7
:103F800022B9043B9D421A460BD33C6101363046B0
:103F900003B0BDE8F08F1268043B002ACBD1013C8E
:103FA000C6E71268043B002AEFD1013CEAE7002093
:103FB000EEE70000000000002DE9F04FC76997B060
:103FC0008DED000B55EC104B209E089183460C9212
:103FD00012937FB9102001F083F80246CBF81C0041
:103FE00020B9A74BEF21A74801F024F9C0E90177D8
:103FF0000760C760DBF81C30196859B15A684A601D
:10400000012393408B60584601F0B4F9DBF81C3073
:1040100000221A602B1EB9BF23F000430193002336
:104020003360019F984BBCBF01223260BB4319D162
:10403000129A42F20F731360C7F31303234300F085
:10404000DD85219B53B9914B21E0914B03930833BC
:10405000219A1360039817B0BDE8F08F8B4B039340
:104060000333F5E79DED007B002251EC170B002395
:104070008DED0A7BFCF770FD804650B1129A01234A
:104080001360219B13B1219A824B1360824B0393DF
:10409000E0E79DED0A0B14AA15A9584601F058FC5B
:1040A000C7F30A560290002E78D00B9BCDF84C80B7
:1040B000C3F31303DDE90A0143F07F5343F44013D4
:1040C000A6F2FF3619460022744BFCF725F966A3C9
:1040D000D3E90023FCF7D8FA65A3D3E90023FCF762
:1040E0001DF9044630460D46FCF764FA62A3D3E995
:1040F0000023FCF7C9FA02460B4620462946FCF786
:104100000DF904460D46FCF76FFD0022074600231B
:1041100020462946FCF72AFD40B13846FCF74AFA0A
:1041200022462B46FCF718FD00B9013F162F52D846
:104130005B4B03EBC703D3E90023DDE90A01FCF77E
:1041400015FD002849D0013F00231193149B9B1BB0
:104150005A1E45BFC3F101030693002300230792B3
:1041600054BF06930793002F39DB079B10973B44FE
:10417000079300230993089B092B66D8052BC4BF1E
:10418000043B0893089BA3F10203CCBF0024012445
:10419000032B65D8DFE803F02B383657DDE91463CD
:1041A0001E4406F23243202BC1BFC3F140039F409F
:1041B00006F2124324FA03F3D6BFC3F1200347EA01
:1041C000030004FA03F0FCF7E5F90122A1F1F8730A
:1041D000013E139276E70123B7E71190B6E7069BFD
:1041E000DB1B06937B42099300231093C3E7002354
:1041F0000D930C9B002B57DC0123049399461A4620
:104200000C920CE00123F3E700230D930C9BFB18A9
:1042100003F1010904934B46012BB8BF0123DBF8DE
:104220001C000021042202F114059D4240D9416086
:10423000584601F05FF8039000283CD1194B024624
:1042400040F2AF11CFE60123DFE7012400230893FA
:104250000D944FF0FF330493994600221223CFE7C9
:1042600001230D93F5E700BF61436F63A787D23F3A
:10427000B3C8608B288AC63FFB799F501344D33F55
:10428000A17C0008B87C00080000F07F9D7C00083D
:10429000947C0008717C0008707C00080000F83FE6
:1042A000007E0008117D00080C9B04939946B6E738
:1042B00001315200B7E7DBF81C30039A1A60B9F1FC
:1042C0000E0F6FD8002C6DD0002F36DDA14B07F0FC
:1042D0000F0203EBC20393ED007BF8058DED0E7B1F
:1042E0004FEA271417D59C4BDDE90A01D3E90823CF
:1042F000FCF7F4FACDE9000104F00F044FF00308D5
:10430000954D5CB9DDE90E23DDE90001FCF7E6FA25
:10431000CDE900012BE04FF00208F1E7E10709D5F4
:10432000DDE90E01D5E90023FCF7AEF9CDE90E0178
:1043300008F1010864100835E3E700F007817C42CA
:10434000844B854D04F00F0203EBC203D3E9002335
:10435000DDE90A01FCF798F9CDE9000124110023F9
:104360004FF00208002C40F0E580002BD0D1119BCB
:10437000DDE90045002B00F04C81784B00222046FF
:104380002946FCF7F3FB002800F04381B9F1000F48
:1043900000F03F81049B002B00F3E480DDE90A3448
:1043A000CDE90034159B002B02DB0E2F40F3428237
:1043B0000D9A002A40F06782099CDDF818800025DC
:1043C000B8F1000F0DD0079B002B0ADD4345069A7C
:1043D000A8BF4346D21A0692079AA8EB0308D31A3D
:1043E0000793099B0BB30D9B002B00F0A682002CBA
:1043F00000F0A18229462246584601F033F9029A7C
:1044000001460546584601F083F80299064658468B
:1044100000F0B0FF099B1B1B099300F09182099AE1
:104420003146584601F01EF902900121584601F02C
:1044300059F8109B0446002B00F084821A4601466E
:10444000584601F00FF9089B012B044603DC009B42
:10445000002B00F07C820026236904EB830318699B
:1044600000F0F0FF1096C0F12000079B184410F0F8
:104470001F0000F09182C0F12003042B40F38182E1
:10448000069BC0F11C0003440693079B0344804431
:104490000793069B002B05DD02991A46584601F04A
:1044A0003BF90290079B002B05DD21461A46584632
:1044B00001F032F90446119B002B00F0768202983D
:1044C000214601F095F9002880F26F8200230299BD
:1044D0000A22584600F070FF0D9B02907E1E002BB2
:1044E00000F05C82002329460A22584600F064FF4F
:1044F000049B002B054603DC089B022B00F35E8225
:10450000B8F1000F05DD29464246584601F004F98E
:104510000546109B002B00F0D0826968584600F0D9
:10452000E9FE0746002840F07F820D4B024640F22C
:10453000EF2158E5E20706D5D5E90023FCF7A4F8FA
:1045400008F101080123641008350BE74FF0020859
:104550000DE700BF007E0008D87D00080000F03F96
:10456000117D00082046AD4B00222946FCF78CF84F
:10457000CDE90001049C7E1E08F101084046FCF7CD
:1045800019F8DDE90023FCF77FF8A54B0022FBF7C3
:10459000C5FEA1F15073CDE90E010F93002C3BD164
:1045A000DDE900019F4B0022FBF7B6FE02460B46F9
:1045B000CDE90023DDE90E23FCF7F6FA002840F0F0
:1045C0005781DDE90E2101F10043DDE90001FCF72F
:1045D000CDFA00283FF4E2AE002425460C9BDDF81E
:1045E0000CA0DE434FF000082146584600F0C2FE02
:1045F000002D00F0A980B8F1000F05D0A84503D028
:104600004146584600F0B6FE2946584600F0B2FE34
:104610009AE03E464C46B1E7834B03EBC40353E9B3
:104620000201039B1C440D9B002B4AD002460B4603
:1046300000207E49FCF752F9DDE90E23FBF76CFE02
:10464000CDE90E01DDF80CA0DDE90001FCF7CCFAA4
:104650000546FBF7AFFF02460B46DDE90001FBF71D
:104660005BFE3035CDE9000102460B460AF8015BDE
:10467000DDE90E01FCF798FA002865D1DDE9002399
:104680006B490020FBF748FE02460B46DDE90E01B0
:10469000FCF78AFA002840F00D81A24500F0EA807C
:1046A000DDE90E015D4B0022FBF7EEFF5B4BCDE930
:1046B0000E010022DDE90001FBF7E6FFCDE9000174
:1046C000C2E7DDE90E23FBF7DFFFCDE90E01DDF8E0
:1046D0000CA0A046DDE90001FCF786FA0546FBF7D1
:1046E00069FF02460B46DDE90001FBF715FE303598
:1046F0000AF8015B02460B46A245CDE900234FF0C4
:10470000000223D1494BDDE90E01FBF707FE02460B
:104710000B46DDE90001FCF747FA002840F0CA80AB
:10472000DDE90E2341490020FBF7F6FD02460B466A
:10473000DDE90001FCF71AFA70B1C24608F1FF3852
:104740001AF8013C302BF8D0374655E0334BFBF7D5
:104750009BFFCDE90001BDE7DDE90A34CDE9003476
:10476000159B002BFFF628AE0E2F3FF725AE2E4BE4
:1047700003EBC70393ED007B0C9B002B8DED047BBB
:1047800002DAB9F1000F64D0DDE90045DDF80CA0D4
:10479000DDE9042320462946FCF7A0F8FCF724FABB
:1047A0000646FBF707FFDDE90423FBF76DFF024632
:1047B0000B462046294606F13004FBF7ADFD0AF80A
:1047C000014B039CAAEB0404A14502460B4640F0B2
:1047D0008280FBF7A3FDDDE9042304460D46FCF7C8
:1047E000E3F9002865D1DDE9042320462946FCF7DA
:1047F000B3F908B1F3075CD40299584600F0BAFD4A
:1048000000238AF80030129B01371F60219B002B88
:104810003FF420ACC3F800A01CE400BF000024401B
:1048200000001C4000001440007E00080000E03F33
:104830000000F03FA24B03EBC70393ED007B0C9B02
:10484000002B8DED047B9FDAB9F1000F9CDC7FF427
:10485000C3AE9C4B0022DDE90401FBF715FFDDE947
:104860000023FCF797F9044600287FF4B5AE3E46D6
:104870002546B4E0DDE90A34CDE90034159B002B70
:1048800001DB0E2FD6DD089A012A36DC139A82B39B
:1048900003F23343099CDDF81880069A1A44069205
:1048A000079A01211A445846079200F01BFE05465C
:1048B00086E53E4653469A4613F8012D392A06D11D
:1048C000039A9A42F7D10399302201360A701A7876
:1048D00001321A7038E77C4B0022FBF7D5FE00222C
:1048E000002304460D46FCF737F900283FF450AF8B
:1048F00082E7149BC3F13603CCE7099B09F1FF342F
:10490000A34208DBB9F1000FA3EB04040EDBDDF8D2
:1049100018804B46C1E7099B109A0994E31A1A4480
:10492000DDF8188010924B460024B6E7069BA3EBF7
:1049300009080023B1E7029E71E5099A029970E522
:10494000029672E5089B012B17DC009BABB9019B1B
:10495000C3F313039BB9019B23F00046360D3605C4
:1049600036B1069B01330693079B0133079301265B
:10497000109B002B7FF470AD1096012075E500268A
:10498000F6E73FF486AD069A1C331A440692079A5E
:104990001A44984407927CE50346F4E7049B002BF5
:1049A0002BDC089B022B09DC27E0B9F1000F1DDC92
:1049B000089B022B1ADDCDF810903E46049B002B7D
:1049C0007FF40CAE21460522584600F0F5FC014666
:1049D0000446029800F00CFF00287FF7FFADDDF8D9
:1049E0000CA031230AF8013B0136FBE50D9BCDF805
:1049F00010903E46002B7FF483AD039F0298214622
:104A0000FFF74FFA00F1300907F8019B039B049A66
:104A1000FB1A9A4240F3CB80029900230A2258469F
:104A200000F0CAFC0290E9E72A690232920005F11F
:104A30000C010C3000F046FB01223946584600F0CC
:104A40006BFE039B03F1010ADDE903231344079383
:104A5000009B03F00103A846099305460AF1FF33C2
:104A6000214602980493FFF71CFA4146069000F194
:104A70003009029800F0BCFE2A46214607465846F7
:104A800000F0D2FEC268014602B3584600F072FC44
:104A9000002F3ADA02990122584600F03DFE2146E5
:104AA000029000F0A5FE002803DC29D119F0010FC7
:104AB00026D0B9F1390F1DD132E02846C1E700BF39
:104AC000007E000800001440000024400A90029874
:104AD00000F08EFE0A990C90584600F04BFC0C9AA0
:104AE0005ABB089B53B9099B43B9B9F1390F17D089
:104AF000002F05DD069B03F1310901E0002F2ADAC2
:104B0000DDF810A00AF8019B6EE5089B3B4304D139
:104B1000009B03F00103002BBCD0B9F1390F36D153
:104B2000049F392307F8013BBA46013F1AF8013CBC
:104B3000392B5BD001333B7056E5002F06DB089B19
:104B40003B4306D1009B03F0010313B9002AA1DC0B
:104B5000D6E7002AE1DC079B0AF8019C534557463B
:104B60002FD0029900230A22584600F025FCA845C0
:104B700002904FF000034FF00A02414658460BD115
:104B800000F01AFC804605460AF1010A66E7DDF8E6
:104B900010A009F10109B5E700F00EFC2946804696
:104BA00000230A22584600F007FC0546ECE7049B68
:104BB000002BC8BF1F46039BD8BF01271F444FF0DF
:104BC000000802990122584600F0A6FD21460290F5
:104BD00000F00EFE0028A7DC02D119F0010FA3D1CE
:104BE000BA4617F8013D302BFAD0FDE4039BBB42D7
:104BF0009AD1039A312301361370F5E4219B002BDF
:104C00007FF423AA014BFFF742BA00BF947C00084F
:104C100038B5074D04460846114600222A601A4658
:104C2000FEF74CFB431C02D12B6803B1236038BD57
:104C300014AF0020014B1868704700BFF404002037
:104C40002DE9F8430746884614460026D4E9019525
:104C5000B9F1010905D52468002CF7D13046BDE82B
:104C6000F883AB89012B07D9B5F90E30013303D096
:104C700029463846C04706436835E9E702440346FB
:104C8000934200D1704703F8011BF9E77047704762
:104C90007047000000487047340600202DE9F047B7
:104CA0008E681F46BE420B6882460C4690462DD841
:104CB000B1F90C2012F4906F26D06569096905EBF3
:104CC0004505A3EB010905EBD5757B1C4B446D1025
:104CD0009D4238BF1D46530527D5294600F02AFAC4
:104CE000064660B321694A4600F0ECF9A38923F433
:104CF000906343F08003A381266165614E44A5EB78
:104D000009052660A5603E46BE4200D93E462068A1
:104D10003246414600F098FEA3689B1BA3602368BF
:104D2000334423600020BDE8F0872A4600F0A6FE49
:104D300006460028E0D12169504600F0CDFE0C2344
:104D4000CAF80030A38943F04003A3814FF0FF303D
:104D5000E9E700002DE9F04F98468B891B069DB0CE
:104D600007460D46144610D50B6973B9402100F073
:104D7000E1F92860286130B90C233B604FF0FF3027
:104D80001DB0BDE8F08F40236B6100230993202301
:104D90008DF82930CDF80C803023DFF89C818DF818
:104DA0002A304FF0010923469A4613F8012B0AB125
:104DB000252AF9D1BAEB040B0BD05B4622462946D3
:104DC0003846FFF76BFF013000F0A780099A5A447C
:104DD00009929AF80030002B00F09F8000234FF0DA
:104DE000FF32CDE905230AF1010A049307938DF8F8
:104DF00053301A935446052214F8011B4E48FBF712
:104E0000CFF9049AD8B9D00644BF20238DF8533087
:104E1000110744BF2B238DF853309AF800302A2B0A
:104E200015D0079A544600204FF00A0C214611F87D
:104E3000013B303B092B4BD9B0B1079214E0A0EBFA
:104E4000080309FA03F313430493A246D2E7039B32
:104E5000191D1B680391002BBBBF5B4242F002028D
:104E600007930793B8BF049223782E2B0AD1637857
:104E70002A2B32D1039B1A1D1B68039243EAE3736A
:104E800002340593DFF8C0A0217803225046FBF7D7
:104E900087F938B1049BA0EB0A00402282401343FB
:104EA0000134049314F8011B24488DF828100622BD
:104EB000FBF776F9002836D0214B1BBB039B073349
:104EC00023F0070308330393099B334409936AE7EC
:104ED0000CFB02320C460120A8E7002301340593A5
:104EE00019464FF00A0C204610F8012B303A092AD7
:104EF00003D9002BC6D00591C4E70CFB0121044661
:104F00000123F0E703AB00932A460E4B04A9384671
:104F1000FEF7E0FA421C0646D6D1AB895B063FF5A8
:104F20002DAF09982CE703AB00932A46054B04A943
:104F30003846FEF76FFDEDE7227D00082C7D000866
:104F4000D53400089D4C0008287D000838B5064D72
:104F50000023044608462B60FEF7BEF9431C02D12D
:104F60002B6803B1236038BD14AF0020B1F90C20C9
:104F70002DE9F041170705460C4656D44B68002B27
:104F800002DC0B6C002B3DDDE66A002E3AD00023DC
:104F900012F480522F68216A2B6025D0626DA3899C
:104FA000580705D56368D21A636B0BB1236CD21A0C
:104FB000216AE66A00232846B047411C24D000231A
:104FC000636023692360A389DA0400D56065616B9F
:104FD0002F60B9B104F14403994202D0284600F091
:104FE0007BFD002363630DE001232846B047461C88
:104FF0000246D4D12B68002BD1D01D2B01D0162B0B
:105000002BD12F6000202FE02A68B4F90C3042B178
:105010001D2A01D0162A22D1002363602369236050
:10502000D5E7626022692260CEE70F69002FE9D0E0
:1050300093070E6808BF4B690F6018BF0023A6EBEB
:1050400007088B60B8F1000FDCDD216AA66A4346D1
:105050003A462846B047002808DCB4F90C3043F043
:105060004003A3814FF0FF30BDE8F0810744A8EB77
:105070000008E7E738B50B6905460C4613B900256B
:10508000284638BD18B1036A0BB9FEF77BFEB4F9A8
:105090000C30002BF3D0626ED00704D4990502D4F3
:1050A000A06DFFF7F4FD28462146FFF75FFF636E12
:1050B000DA070546E4D4A3899B05E1D4A06DFFF788
:1050C000E7FDDDE70A44914200F1FF3300D170476C
:1050D00010B511F8014B03F8014F9142F9D110BD01
:1050E000024B0146186800F025B800BFF404002008
:1050F00070B50F4E0C463168054611B900F094FCAE
:1051000030602146284600F08FFC431C03D14FF04D
:10511000FF34204670BDC41C24F00304A042F8D024
:10512000211A284600F080FC0130F2D1EFE700BFE1
:1051300018AF00202DE9F843CD1C25F003050835F4
:105140000C2D38BF0C25002D064601DBA94204D9E1
:105150000C2333600020BDE8F883DFF8D48000F032
:10516000BDF8D8F800301C4644BB29463046FFF74E
:10517000BFFF431C044658D1D8F800402746002FF3
:1051800043D1002C4BD023683946304604EB030949
:1051900000F04AFC814542D121686D1A294630460B
:1051A000FFF7A6FF01303AD023682B442360D8F8DC
:1051B00000305A6862BBC8F800700FE02268521BCA
:1051C00020D40B2A17D96119A342256018BF596052
:1051D000636808BFC8F8001062514B60304600F0A9
:1051E00083F804F10B00231D20F00700C21A1CBF36
:1051F0001B1AA350AFE76268A3420CBFC8F8002097
:105200005A60EBE723466468AEE73C467F68B6E742
:105210001A465B68A342FBD100235360DEE70C23F0
:105220003360304600F060F894E70560D6E700BFD1
:105230001CAF00201FB514461A46094B1B680546D3
:10524000D86854B9074B1C46CDE9013400912B4670
:10525000054900F031F800F06CFE044BF4E700BFA4
:10526000F40400206E7D0008407D0008337D0008B6
:1052700038B5074D04460846114600222A601A46F2
:10528000FEF734F8431C02D12B6803B1236038BD0C
:1052900014AF002038B5074D0446084611460022D9
:1052A0002A601A46FDF7FAFF431C02D12B6803B1AE
:1052B000236038BD14AF00200EB403B5014603AB24
:1052C000054853F8042B0068019300F079FC02B004
:1052D0005DF804EB03B07047F40400200148FFF7C9
:1052E000D6BC00BF10AF00200148FFF7D1BC00BF03
:1052F00010AF002070B5C66904460D4676B910207F
:10530000FFF7EEFE0246E06120B9184B18486B210A
:10531000FFF790FFC0E901660660C660E669F368C2
:1053200083B1E369DB6853F82500B8B9012101FABC
:1053300005F6721D9200204600F062FB60B1C0E9E4
:1053400001560EE021220421204600F059FBE369BA
:10535000F060DB68002BE4D1002070BD026843F8E8
:1053600025200023C0E90333F7E700BFA17C000834
:105370006F7D000870B5C66905460C4676B91020E9
:10538000FFF7AEFE0246E86120B9094B09488F21BC
:10539000FFF750FFC0E901660660C6603CB1EB69EB
:1053A0006268DB6853F82210216043F8224070BD28
:1053B000A17C00086F7D00082DE9F0410D690746CA
:1053C0000C461E4601F1140C0020DCF8003099B2A6
:1053D00002FB01611E0C0B0C02FB063389B201308B
:1053E00001EB034185424CF8041B4FEA1346ECDC09
:1053F0000EB3A368AB4219DC616838460131FFF790
:1054000079FF804628B902460C4B0D48BA21FFF7B8
:1054100011FF2269023204F10C0192000C30FFF7F7
:1054200051FE21463846FFF7A5FF444604EB8503AD
:1054300001355E6125612046BDE8F081117D0008DF
:105440006F7D0008B0F5803F034636BF030400209F
:105450001020B3F1807F3CBF1B020830B3F1805FA6
:105460003CBF1B010430B3F1804F03D3002B0ADB98
:10547000013070479B0001D5023070475B0001D5B9
:1054800003307047202070470368024613F007007E
:105490000BD0D90721D4980749BF5B089B0801208E
:1054A00013605CBF13600220704799B209B91B0CEE
:1054B0001020D9B209B908301B0A190704BF1B090B
:1054C0000430990704BF9B080230D90703D45B0856
:1054D00000F1010003D013607047002070472020C6
:1054E0007047000010B50C460121FFF703FF02468C
:1054F00028B9054B054840F24511FFF79BFE0123F3
:105500004461036110BD00BF117D00086F7D00087C
:105510002DE9F04F14460A6923699A42A8BF234631
:105520000F46A4BF0C461F46D4F810A0D7F8109021
:10553000A36861680AEB0906B34285B0B8BF0131C0
:10554000FFF7D8FE30B90246444B45484FF4B171DD
:10555000FFF770FE00F1140505EB86082B460022CC
:10556000434521D307F1140104F1140202EB8A022E
:1055700001EB89030293131B153B23F00303043350
:1055800004F11507BA4238BF04230193029B03912B
:105590008B420CD8002E03DD58F8043D002B5BD065
:1055A000066105B0BDE8F08F43F8042BD8E7B1F8E9
:1055B00000A0BAF1000F24D004F1140EA9464FF058
:1055C000000C5EF8047BD9F800301FFA87FB9BB211
:1055D0000AFB0B334FEA174BD9F8007063444FEACC
:1055E000174C0AFB0BC707EB13479BB243EA074371
:1055F000724549F8043B4FEA174CE2D8019B45F845
:1056000003C0039BB3F802900431B9F1000F21D01D
:105610002B6804F1140CAE464FF0000ABCF800B041
:10562000BEF8027009FB0B7757449BB243EA07436D
:105630004EF8043B5CF8043B4FEA134ABEF80030D6
:1056400009FB0A3303EB174362454FEA134AE5D8D7
:10565000019FEB51043599E7013E9BE7117D00085E
:105660006F7D00082DE9F843154612F00302074646
:105670000E4607D0254C013A002354F82220FFF7AC
:105680009BFE0646AD103DD0FC697CB91020FFF7AB
:1056900027FD0246F86128B91D4B1E4840F2B311A0
:1056A000FFF7C8FDC0E901440460C460D7F81C805E
:1056B000D8F808404CB940F271213846FFF712FF84
:1056C0000023C8F80800044603604FF00009EB0708
:1056D0000AD5314622463846FFF71AFF3146804642
:1056E0003846FFF747FE46466D100BD0206838B9A4
:1056F000224621463846FFF70BFF2060C0F8009095
:105700000446E4E73046BDE8F88300BFCC7D0008DE
:10571000A17C00086F7D00082DE9F0470C46496820
:10572000236903EB6218A368074691464FEA621AA1
:1057300008F10106B3420BDB3846FFF7DBFD0546F7
:1057400048B90246284B29484FF4EF71FFF772FD24
:1057500001315B00EEE7002300F1140100F11002BB
:105760001846534533DB20692AEAEA7A04F1140328
:1057700019F01F0901EB8A0103EB800C2BD0C9F152
:10578000200E8A460022186800FA09F010434AF8F1
:10579000040B53F8042B9C4522FA0EF2F3D8ACEB21
:1057A0000403153B23F00303043304F1150084457F
:1057B00038BF0423CA500AB108F10206013E384638
:1057C0002E612146FFF7D6FD2846BDE8F08742F856
:1057D000040F0133C5E7043953F8042B41F8042FB3
:1057E0009C45F9D8EAE700BF117D00086F7D0008ED
:1057F0000A6903460069801A30B50ED1143314319A
:1058000003EB820401EB820154F8045D51F8042D8E
:10581000954203D005D24FF0FF3030BDA342F3D301
:10582000FBE70120F9E700002DE9F74F894606461E
:10583000114648461446FFF7DBFF051E12D12946E4
:105840003046FFF757FD024628B93F4B40F237215B
:105850003E48FFF7EFFC0123C0E90435104603B0D2
:10586000BDE8F08FBCBF4B46A1463046D9F80410C6
:10587000BABF1C4601250025FFF73CFD024618B9BA
:10588000314B40F24521E3E7D9F810702669C56035
:1058900009F1100309F1140504F1140E00F1140BC1
:1058A00005EB87080EEB86060193D9464FF0000CF6
:1058B000019B5EF8040B53F804AF01931FFA8AF3BF
:1058C000194683B2CB1A000C6344C0EB1A4000EBBC
:1058D00023409BB243EA0043764549F8043B4FEA34
:1058E000204CE5D8331B153B23F003031534043358
:1058F000A64238BF04231D445B441E462C46444543
:105900000ED308F10301491B21F00301033DA84513
:1059100038BF00210B4453F8041D91B117619DE776
:1059200054F8041BE646080C1CFA81FC714400EB99
:105930002C4089B241EA004146F8041B4FEA204C52
:10594000DDE7013FE7E700BF117D00086F7D00083C
:105950002DE9F7430F46012159EC108B1646FFF74E
:10596000C9FC044630B90246234B244840F20F31AB
:10597000FFF760FCC9F30A55C9F313030DB143F4F3
:1059800080130193B8F1000323D068460093FFF71A
:105990007BFDDDE90012D0B1C0F1200302FA03F370
:1059A0000B43C24063610192019BA361002B0CBFBA
:1059B000012202222261A5B1A5F2334505443D60D2
:1059C000C0F135003060204603B0BDE8F08361616E
:1059D000EAE701A8FFF758FD019B6361203001222F
:1059E000E8E704EB8203A0F2324038601869FFF761
:1059F00029FDC0EB4210E5E7117D00086F7D00082E
:105A000070B5A1FB02543CB92946FFF793FB06464B
:105A100028B90026304670BD0C220260F9E72A46FC
:105A20002146FFF72BF9F5E738B5064D002304466C
:105A300008462B60FDF7FEFB431C02D12B6803B127
:105A4000236038BD14AF0020884210B501EB02047A
:105A500002D98442234607D8431EA14208D011F838
:105A6000012B03F8012FF8E7024401468A4200D1D6
:105A700010BD13F8014D02F8014DF7E72DE9F04193
:105A8000804615460C4621B9BDE8F0411146FFF7A6
:105A900051BB2AB900F020F800242046BDE8F0816F
:105AA00000F060FA8542064602D8B5EB500FF4D8F4
:105AB00029464046FFF73EFB07460028ECD0B5429A
:105AC0002A46214628BF3246FFF7FCFA21464046C7
:105AD00000F002F83C46E0E738B50546002941D021
